:020000040800F2
:100000007006002089010008910100089301000892
:100010009501000897010008990100080000000000
:100020000000000000000000000000009B0100082C
:100030009D010008000000009F0100081111000848
:10004000A3010008A3010008A3010008A301000800
:10005000A3010008A301000825030008A30100086C
:10006000A3010008A3010008A3010008A3010008E0
:10007000A3010008A3010008A3010008A3010008D0
:10008000A3010008A3010008A3010008A3010008C0
:10009000A3010008A3010008A3010008A3010008B0
:1000A000A3010008A3010008A3010008A3010008A0
:1000B000A3010008A3010008A3010008A301000890
:1000C000A3010008A3010008A3010008A301000880
:1000D000A3010008A3010008A3010008A301000870
:1000E000A3010008A3010008A301000800F002F822
:1000F00000F03AF80AA090E8000C82448344AAF188
:100100000107DA4501D100F02FF8AFF2090EBAE885
:100110000F0013F0010F18BFFB1A43F0010318473B
:10012000B0170000D0170000103A24BF78C878C17B
:10013000FAD8520724BF30C830C144BF04680C60ED
:10014000704700000023002400250026103A28BF35
:1001500078C1FBD8520728BF30C148BF0B60704739
:100160001FB51FBD10B510BD00F031F81146FFF7E7
:10017000F7FF01F003F800F04FF803B4FFF7F2FFC8
:1001800003BC00F057F800000948804709480047C1
:10019000FEE7FEE7FEE7FEE7FEE7FEE7FEE7FEE737
:1001A000FEE7FEE704480549054A064B7047000094
:1001B00015110008ED0000087000002070060020F6
:1001C000700200207002002070477047704775462B
:1001D00000F02CF8AE4605006946534620F00700B3
:1001E000854618B020B5FFF7DDFFBDE820404FF091
:1001F00000064FF000074FF000084FF0000BAC4630
:10020000ACE8C009ACE8C009ACE8C009ACE8C0097A
:1002100021F007018D46704710B50446AFF300800A
:100220002046BDE81040FFF7A8BF00000048704717
:100230001000002001491820ABBEFEE72600020096
:100240007047000080B58CB000200B90FFE70B9842
:10025000032865D8FFE70121079100220892104684
:1002600000F0FCFC079A08980221059100F0F6FCCA
:10027000089A03210691104600F0F0FC0799089AAD
:10028000084600F0EBFC0599079A104600F0E6FCE2
:100290000699089A079800F0E1FC08980A90FFE791
:1002A0000A9844F61F61884205D8FFE7FFE70A98DD
:1002B00001300A90F4E701210391002204921046D4
:1002C00000F0CCFC049A02210191104600F0C6FC1B
:1002D000049A03210291104600F0C0FC0399049A8D
:1002E000084600F0BBFC0199049A039800F0B6FCA4
:1002F0000299049A039800F0B1FC04980990FFE772
:10030000099844F61F61884205D8FFE7FFE709987E
:1003100001300990F4E7FFE70B9801300B9096E766
:100320000CB080BD80B594B000201290FFE7129809
:1003300042F20F71884205D8FFE7FFE712980130BB
:100340001290F4E7012000210DF14F0200F028FB8C
:100350009DF84F00002840F0EF80FFE700200D904F
:1003600003210DF14E0200F01BFB0D9802210DF14F
:100370004D0200F015FB0D98012113AA00F010FBAF
:100380009DF84E00012859D1FFE7FFF75BFF0020E1
:100390000C9001220B92114600F060FC0C9A022195
:1003A0000991104600F05AFC0C9A03210A9110465C
:1003B00000F054FC0B990C9A084600F04FFC099988
:1003C0000C9A0B9800F04AFC0A990B9A104600F020
:1003D00045FC0C981190FFE7119843F67F01C0F29D
:1003E0000101884205D8FFE7FFE71198013011901D
:1003F000F2E700F0C9F800201090FFE7109840F6EF
:100400003F51C0F20301884205D8FFE7FFE710988B
:1004100001301090F2E700F091F800201190FFE712
:10042000119840F63F51C0F20301884205D8FFE71A
:10043000FFE7119801301190F2E77CE09DF84D0044
:10044000012877D1FFE7FFF7FDFE00200890012289
:100450000792114600F002FC089A0221059110460D
:1004600000F0FCFB089A03210691104600F0F6FB11
:100470000799089A084600F0F1FB0599089A079831
:1004800000F0ECFB0699079A104600F0E7FB08988D
:100490000F90FFE70F9842F20F71884205D8FFE7EF
:1004A000FFE70F9801300F90F4E70020049001223D
:1004B0000392114600F0D2FB049A022101911046EA
:1004C00000F0CCFB049A03210291104600F0C6FB19
:1004D0000399049A084600F0C1FB0199049A039815
:1004E00000F0BCFB0299039A104600F0B7FB049899
:1004F0000E90FFE70E9848F29F61C0F2010188421A
:1005000005D8FFE7FFE70E9801300E90F2E700F004
:100510003BF800200E90FFE70E9848F29F61C0F272
:100520000101884205D8FFE7FFE70E9801300E90E1
:10053000F2E7FFE7FFE7FFE714B080BD80B584B0C6
:100540000121039100220292104600F087FB029ADB
:1005500002210091104600F081FB039A02980321CA
:10056000019100F07BFB039A1046114600F076FBE8
:100570000099029A039800F071FB0199029A03987E
:1005800000F06CFB04B080BD80B584B00121039104
:1005900000220292104600F061FB039A02980221A9
:1005A000009100F05BFB029A03210191104600F0DC
:1005B00055FB0399029A084600F050FB0099039AF4
:1005C000104600F04BFB0199029A039800F046FB9D
:1005D00004B080BD82B08DF806008DF805100020B3
:1005E0008DF804009DF806000F2805DCFFE79DF854
:1005F0000500032805DBFFE79DF804008DF80700E0
:1006000030E09DF8060080088DF803009DF8060094
:1006100000F003008DF806009DF8060081000F2011
:1006200000FA01F39DF803200821C4F2010151F8FA
:100630002200984341F822009DF805009DF806200D
:10064000920000FA02F39DF8032051F822001843AB
:1006500041F8220001208DF804009DF804008DF877
:100660000700FFE79DF8070002B0704781B08DF8E2
:10067000030000208DF802009DF803000F280FDC16
:10068000FFE79DF80310012000FA01F340F2004259
:10069000C4F201021168194311608DF8020003E0F1
:1006A00000208DF80200FFE79DF8020001B07047BE
:1006B00080B582B08DF806008DF805109DF8060013
:1006C0000F2805DCFFE79DF80500032804DBFFE7A2
:1006D00000208DF8070037E000208DF804009DF819
:1006E000050020B9FFE700208DF8040017E09DF811
:1006F0000500012804D1FFE701208DF804000DE07A
:100700009DF80500022804D1FFE702208DF80400BF
:1007100003E000208DF8070016E0FFE7FFE79DF8F3
:1007200006009DF80410FFF755FF8DF803009DF8B3
:100730000300012804D1FFE701208DF8070003E042
:1007400000208DF80700FFE79DF8070002B080BD8C
:1007500082B08DF807008DF8061000208DF8050096
:100760009DF807000F2861DCFFE79DF806000146B1
:10077000009140B1FFE7009801281ED0FFE70098E4
:10078000022834D04DE09DF80710012000FA01F353
:1007900040F20842C4F201021168194311609DF849
:1007A000071000FA01F340F20C42C4F20102116892
:1007B000994311608DF8050037E09DF8071001207E
:1007C00000FA01F340F20842C4F2010211689943B1
:1007D00011609DF8071000FA01F340F20C42C4F2D8
:1007E00001021168194311608DF805001DE09DF8A4
:1007F0000710012000FA01F340F20842C4F201029E
:100800001168194311609DF8071000FA01F340F2D6
:100810000C42C4F201021168194311608DF8050001
:1008200003E000208DF80500FFE703E000208DF8CD
:100830000500FFE79DF8050002B0704780B582B063
:1008400000208DF80700FFE79DF807000F2800F350
:10085000A480FFE79DF8071040F20000C2F20000FC
:10086000405C4009C007002800F08380FFE79DF846
:100870000710012000FA01F240F20041C4F2010128
:100880000868104308609DF8071040F20000C2F2AB
:100890000000405CC0F3C1000146009140B1FFE799
:1008A000009801281CD0FFE70098022830D047E0CC
:1008B0009DF80710012000FA01F340F20842C4F24B
:1008C00001021168194311609DF8071000FA01F246
:1008D00040F20C41C4F201010868904308602FE027
:1008E0009DF80710012000FA01F340F20842C4F21B
:1008F00001021168994311609DF8071000FA01F296
:1009000040F20C41C4F2010108681043086017E08E
:100910009DF80710012000FA01F340F20842C4F2EA
:1009200001021168194311609DF8071000FA01F2E5
:1009300040F20C41C4F20101086810430860FFE76F
:100940009DF8071040F20000C2F20000405C00F089
:100950000700013060B1FFE79DF8070040F2000199
:10096000C2F20001095C01F00701FFF733FEFFE767
:100970000CE09DF80710012000FA01F240F200415E
:10098000C4F20101086890430860FFE7FFE79DF8A3
:10099000070001308DF8070056E702B080BD000067
:1009A00084B08DF80E008DF80D10029200208DF8A5
:1009B00007009DF80D00102805DBFFE79DF80700F4
:1009C0008DF80F0052E00298002846D0FFE79DF80E
:1009D0000E000146009140B1FFE70098012815D0B4
:1009E000FFE70098022822D032E040F60800C4F267
:1009F000010001689DF80D20012000FA02F3194062
:100A0000D140029A11708DF8070025E040F60840A9
:100A1000C4F2010001689DF80D20012000FA02F3E4
:100A20001940D140029A11708DF8070014E041F28C
:100A30000800C4F2010001689DF80D20012000FAB1
:100A400002F31940D140029A11708DF8070003E0BB
:100A500000208DF80700FFE703E000208DF8070075
:100A6000FFE79DF807008DF80F00FFE79DF80F00E6
:100A700004B0704782B08DF807008DF806108DF82D
:100A8000052000208DF804009DF807000146009124
:100A900048B1FFE7009801284BD0FFE700980228F3
:100AA00000F08D80D1E09DF8060007281BDCFFE7F1
:100AB0009DF8060081000F2000FA01F240F60001C7
:100AC000C4F201010868904308609DF805009DF894
:100AD0000620920000FA02F2086810430860012024
:100AE0008DF8040024E09DF806000F281BDCFFE7CA
:100AF0009DF8060081000F2000FA01F240F6040183
:100B0000C4F201010868904308609DF805009DF853
:100B10000620920000FA02F20868104308600120E3
:100B20008DF8040003E000208DF80400FFE7FFE7E4
:100B30008FE09DF8060007281BDCFFE79DF8060004
:100B400081000F2000FA01F240F60041C4F20101D9
:100B50000868904308609DF805009DF80620920003
:100B600000FA02F208681043086001208DF80400C2
:100B700024E09DF806000F281BDCFFE79DF8060027
:100B800081000F2000FA01F240F60441C4F2010195
:100B90000868904308609DF805009DF806209200C3
:100BA00000FA02F208681043086001208DF8040082
:100BB00003E000208DF80400FFE7FFE749E09DF81F
:100BC000060007281BDCFFE79DF8060081000F20C8
:100BD00000FA01F241F20001C4F2010108689043F9
:100BE00008609DF805009DF80620920000FA02F2C8
:100BF00008681043086001208DF8040024E09DF887
:100C000006000F281BDCFFE79DF8060081000F207F
:100C100000FA01F241F20401C4F2010108689043B4
:100C200008609DF805009DF80620920000FA02F287
:100C300008681043086001208DF8040003E00020DC
:100C40008DF80400FFE7FFE703E000208DF80400C3
:100C5000FFE79DF8040002B07047000086B08DF8F1
:100C600016008DF815108DF8142000208DF8130053
:100C70009DF81500102805DBFFE79DF813008DF89F
:100C800017009DE09DF816000146039140B1FFE773
:100C90000398012831D0FFE7039802285AD086E054
:100CA0009DF814000146029198B1FFE702980128CF
:100CB0001ED1FFE79DF81510012000FA01F340F660
:100CC0000C02C4F201021168194311608DF813007F
:100CD00012E09DF81510012000FA01F340F60C0215
:100CE000C4F201021168994311608DF8130003E00A
:100CF00000208DF81300FFE75DE09DF81400014629
:100D0000019198B1FFE7019801281ED1FFE79DF8F6
:100D10001510012000FA01F340F60C42C4F2010262
:100D20001168194311608DF8130012E09DF8151039
:100D3000012000FA01F340F60C42C4F201021168EE
:100D4000994311608DF8130003E000208DF8130023
:100D5000FFE730E09DF814000146009198B1FFE7ED
:100D6000009801281ED1FFE79DF81510012000FA18
:100D700001F341F20C02C4F201021168194311603F
:100D80008DF8130012E09DF81510012000FA01F310
:100D900041F20C02C4F201021168994311608DF80E
:100DA000130003E000208DF81300FFE703E00020AC
:100DB0008DF81300FFE79DF813008DF81700FFE78B
:100DC0009DF8170006B0704781B08DF80300002031
:100DD0008DF802009DF803001F280DDCFFE79DF849
:100DE0000310012000FA01F14EF20012CEF20002CF
:100DF00011608DF802002DE09DF803003F280FDC04
:100E0000FFE79DF80300A0F12001012000FA01F1A5
:100E10004EF20412CEF2000211608DF8020018E0CA
:100E20009DF803005F280FDCFFE79DF80300A0F1A9
:100E30004001012000FA01F14EF20812CEF2000248
:100E400011608DF8020003E000208DF80200FFE73A
:100E5000FFE7FFE79DF8020001B0704782B08DF810
:100E600007008DF8061000208DF805009DF807009A
:100E70000146009140B1FFE70098012813D0FFE739
:100E8000009802281ED02CE09DF80610012000FAE0
:100E900001F341F21402C4F2020211681943116015
:100EA0008DF8050021E09DF80610012000FA01F3FD
:100EB00041F21C02C4F202021168194311608DF85C
:100EC000050012E09DF80610012000FA01F341F23E
:100ED0001802C4F202021168194311608DF805006E
:100EE00003E000208DF80500FFE79DF8050002B043
:100EF0007047000081B000208DF8030041F200012E
:100F0000C4F20201086820F480200860086840F4F8
:100F100080300860FFE741F20000C4F20200006880
:100F200000F400310020B0EB514F01D1FFE7F2E7B0
:100F300041F20401C4F20201012008608DF80300AF
:100F40009DF8030001B0704780B584B0029002980C
:100F500042F20041C4F6741100F0EEFB00F0C0FB59
:100F6000002244F20003C4F28F0300F0DDF900F028
:100F700035FB01909DF8070058BBFFE701984EF242
:100F80001401CEF2000108604EF21001CEF2000111
:100F9000086840F001000860FFE74EF21000CEF252
:100FA00000000068C003002801D4FFE7F5E74EF217
:100FB0001001CEF20001086820F0010008604EF236
:100FC0001801CEF200010020086001208DF80F000A
:100FD00003E000208DF80F00FFE79DF80F0004B03C
:100FE00080BD000080B500F001F880BD84B0002015
:100FF0000390029041F20001C4F20201086840F43B
:1010000080300860FFE741F20000C4F2020000688F
:1010100000F400300290039801300390FFE702993A
:101020000020019039B9FFE70398B0F5A06018BF20
:1010300001200190FFE70198C0070028E3D1FFE7F6
:1010400041F20000C4F2020000688003002803D5CA
:10105000FFE70120029002E000200290FFE70298E3
:10106000012851D1FFE742F20001C4F202010868F1
:1010700040F010000860086820F007000860086869
:1010800040F00200086041F20401C4F20201009144
:101090000868086008680860086840F480600860B4
:1010A000086820F47C100860086840F4E8100860C4
:1010B00041F20001C4F20201086840F0807008604B
:1010C000FFE741F20000C4F202000068800100283E
:1010D00001D4FFE7F5E741F20401C4F20201086818
:1010E00020F003000860086840F002000860FFE795
:1010F00041F20400C4F20200006800F00C0008286D
:1011000001D0FFE7F4E700E0FFE704B0704700001C
:101110007047000080B541F20002C4F2020210687C
:1011200040F00100106041F20401C4F202010868BD
:101130000023CFF6FF031840086010684FF6FF73D6
:10114000CFF6F66318401060106820F4802010601D
:10115000086820F4FE00086041F20801C4F20201B0
:101160004FF41F000860FFF73DFF4EF60851CEF226
:1011700000014FF00060086080BD000080B58CB0B9
:1011800000200A900B90FFF7B5FE02210891084657
:10119000FFF764FE089803210791FFF75FFE089AA6
:1011A0000A9801210991FFF765FC089A0A981146EF
:1011B000FFF760FC0799089A0A98FFF75BFC0A9909
:1011C00009980822FFF756FC089A09990846FFF784
:1011D00051FC089A09981146FFF74CFC0799089AA8
:1011E0000998FFF747FC0620FFF7EEFDFFF726FB07
:1011F00009990A98FFF75CFA0A990846FFF7A8FAD6
:101200000A98FFF733FAFFE70020049001220592C5
:101210001146FFF723FD049A022102911046FFF7C1
:101220001DFD049A032103911046FFF717FD059950
:10123000049A0846FFF712FD0299049A0598FFF7F1
:101240000DFD059A03991046FFF708FD48F20000CE
:10125000C4F23B500190FFF777FE0599049A1046BF
:10126000FFF7FCFC0299059A0498FFF7F7FC039935
:10127000049A1046FFF7F2FC0599049A0846FFF716
:10128000EDFC0299059A1046FFF7E8FC0399049AD1
:101290000598FFF7E3FC0020C4F2FA400690FFF740
:1012A00053FE0599049A1046FFF7D8FC0299049A58
:1012B0001046FFF7D3FC059A03990498FFF7CEFC7C
:1012C000059A10461146FFF7C9FC0299049A059841
:1012D000FFF7C4FC0399049A0598FFF7BFFC019837
:1012E000FFF732FE0599049A1046FFF7B7FC029902
:1012F000059A0498FFF7B2FC0399049A1046FFF789
:10130000ADFC0599049A0846FFF7A8FC0299059AD6
:101310001046FFF7A3FC0399049A0598FFF79EFC7B
:101320000698FFF711FE6FE72DE9C04130B4DFF8F2
:10133000A4C23CEA111418BF3CEA131400F0ED807B
:101340001CEA111481EA030544EAD57418BF1CEAAB
:10135000131500F0C880A4EB050404F17F7404F5B4
:1013600000344FF0004545EAC12145EAC32341EA74
:10137000505143EA52534FEAC0204FEAC2229942E9
:1013800008BF904200F09D804FEA13650FF24416AB
:10139000765D4FEA134506FB05F7C7F1807706FB3C
:1013A00007F74FEAD737A7FB03687642A7FB06CEBD
:1013B000C8F5803838BFA8F1010807FB08E6A6FB8E
:1013C000028C4FF0000EE6FB03CEDCF1000CCEF1F8
:1013D000004E38BFAEF1010EA6FB0C584FF00007CF
:1013E000E6FB0E87A1FB08C6A0FB07CE16EB0E0698
:1013F0004FF0000545F10005E1FB076515F1E04EF2
:101400007EBFA4F580345FEA46066D4116F1800781
:1014100045F100054FEA172747EA05674FEA15250A
:101420004FEA0666A6F1DE46B6F1805F20D938465F
:1014300005EBC47124F0010C01EB0C11BCF1FE6F43
:1014400002D8F0BCBDE8008124425CBF01F5801EDB
:101450009EEAC47F02D4F0BCBDE80081244200F1C2
:101460003980A1F1C041F0BCBDE8004100F031B9C4
:101470004FEAD02040EA41504FEAD1214FEAD22230
:1014800042EA43524FEAD323A7FB028607FB0366D7
:1014900005FB02661EEA0E0F58BFA6EB0056B6EB20
:1014A00000564FEA520E4EEAC37E18EB0E0E56EB74
:1014B000530EBCD518EB02085E417F1C55F10005A8
:1014C000B5E74FF480154FF000074FF000064FF0DE
:1014D0000008ACE701F1C04101F000414FF000000D
:1014E000F0BCBDE800810CEA131511EA0C1F00D016
:1014F0000CE013EA0C1F00F026804FF0000081EA98
:10150000030101F00041F0BCBDE80081F0BCBDE882
:10151000004181EA030100F0DCB8F0BCBDE8004105
:1015200070B500F088F800BF097EFC3E00F007B8F7
:101530004FF0000081EA030101F00041704781EAA9
:10154000030100F0C6B8F0BCBDE8004122494FF0ED
:1015500000007047FFFDFBF9F7F5F4F2F0EEEDEB5C
:10156000E9E8E6E4E3E1E0DEDDDBDAD8D7D5D4D3A1
:10157000D1D0CFCDCCCBCAC8C7C6C5C4C2C1C0BFED
:10158000BEBDBCBBBAB9B8B7B6B5B4B3B2B1B0AFF3
:10159000AEADACABAAA9A8A8A7A6A5A4A3A3A2A1D7
:1015A000A09F9F9E9D9C9C9B9A9999989797969592
:1015B00095949393929191908F8F8E8E8D8C8C8B2E
:1015C0008B8A8989888887878685858484838382B6
:1015D000828181800000FF070000F87F4FEA1153ED
:1015E000A3F58063D3F11E03A8BFD3F1200C08DB61
:1015F0004FF0004242EAC12252EA505232FA03F05E
:10160000704709420BD4102BC4BF0020704703F56C
:10161000787CBCF1FF3F05D04FF0FF3070474FF0B2
:101620000000704770B500F006F800BF49922480B2
:1016300000207047F0E70EF1020E2EF0030E5EF868
:10164000046B364205D4012A43EB030515F5001F50
:1016500012D8012841EB010C1CF5001F0CD80ED14B
:101660004FEAD17C0CEB4C0C0CF1020C15F5001F71
:1016700008BF4CEBD37C04E04FF0080C01E04FEACC
:10168000D37C0CEB4C0526FA05F606F00706B6F1FE
:10169000040C06D20EEB860CBDE870404CF0010C39
:1016A0006047DFE80CF0090B02024FF00041A1F5A2
:1016B00000214FF0000070BD19461046012851EB83
:1016C000010418BFD4F5001484BF002001F00041CC
:1016D00070BD0808A0F500114FEA31017047000005
:1016E00043004FEAD30C4FEA3C0C43401FBF400776
:1016F0000CF1605113F0FE4F70471CF0006F03D1E6
:101700000CF00041002070470CF0004343EA507099
:1017100040EACC0010B500F090F800BF0000009245
:101720004FEA0001FFF7D5BF4FF00041A1F50021BE
:101730004FF00000704700004FF47F0C1CEAD012FD
:101740001EBF1CEAD11392EA0C0F93EA0C0F00F0B3
:10175000478090EA010F48BF42F480724FF0004C7E
:101760004CEA00204CEA012102EB0302A0FB01132A
:10177000A2F50002002918BF43F001035B0028BF57
:101780004FEA330342EB22425FEA132C4CEBC25088
:101790002EBFBCEB436FB2F57C0F70474FEA036C72
:1017A000BCF1004F08BF20F00100B2F57C0F38BF3C
:1017B00070470BD582F0FF0212F5803FC8BF70471B
:1017C00000F1C040D8BF00F00040704700F5000CA9
:1017D0005FEA4C0C48BF7047B0F1C04000F073B8EE
:1017E0000CEAD11390EA010F48BF42F480726245BF
:1017F00038BF634504D280EA010000F00040704722
:1018000010B500F01AF800BF8900013E00F007B8DB
:1018100000F009B85FEA410C5FEA1C6C08D080EA6E
:10182000010000F050B85FEA400C5FEA1C6CF6D192
:101830004FF00040A0F5800070470EF1020E2EF030
:10184000030E5EF8044B244204D44FEA4102B2F185
:101850007F4F11D84FEA4003B3F17F4F0CD80ED120
:101860004FEAD07C0CEB4C0C0CF1020CB2F17F4F28
:1018700008BF4CEBD17C04E04FF0080C01E04FEACC
:10188000D17C0CEB4C0324FA03F404F00704B4F10C
:10189000040C06D20EEB840CBDE810404CF0010C99
:1018A0006047DFE80CF0070802024FF00040A0F5A7
:1018B000800010BD0846420018BFD2F1807288BF78
:1018C00000F0004010BDFF2141EAD050C005704734
:1018D000F018000800000020100000002801000897
:1018E00000190008100000206006000044010008F4
:1018F000170F171717171717171717171717171780
:040000050800018965
:00000001FF
